{
  "_format": "hh-sol-artifact-1",
  "contractName": "MpcCore",
  "sourceName": "@coti-io/coti-contracts/contracts/utils/mpc/MpcCore.sol",
  "abi": [
    {
      "inputs": [],
      "name": "RSA_SIZE",
      "outputs": [
        {
          "internalType": "uint256",
          "name": "",
          "type": "uint256"
        }
      ],
      "stateMutability": "view",
      "type": "function"
    }
  ],
  "bytecode": "0x6088610038600b82828239805160001a607314602b57634e487b7160e01b600052600060045260246000fd5b30600052607381538281f3fe730000000000000000000000000000000000000000301460806040526004361060335760003560e01c806331b943d5146038575b600080fd5b604061010081565b60405190815260200160405180910390f3fea2646970667358221220079d99ec4b70ca03a5d02184e7d89b430b2705a0750991cc0ca29fa3b7e8674764736f6c63430008130033",
  "linkReferences": {},
  "deployedLinkReferences": {}
}